:020000040800F2
:10000000702E0020010100087D8A00087F8A000808
:10001000838A0008878A00088B8A00080000000095
:100020000000000000000000000000008F8A0008AF
:10003000918A000800000000938A000825760008D5
:100040001B0100081B0100081B0100081B01000820
:100050001B0100081B0100081B0100081B01000810
:100060001B0100081B0100081B0100081B01000800
:100070001B0100081B0100081B0100081B010008F0
:100080001B0100081B0100081B010008717B000810
:100090001B0100081B0100081B0100081B010008D0
:1000A0001B0100081B0100081B0100081B010008C0
:1000B000098200081B0100081B0100081B01000841
:1000C0001B0100081B0100081B0100081B010008A0
:1000D0001B010008C53C0008957300081B010008BF
:1000E0001B0100081B0100081B010008DFF80CD0F1
:1000F00008F00AFE0048004789890008702E002099
:100100000648804706480047FEE7FEE7FEE7FEE7B1
:10011000FEE7FEE7FEE7FEE7FEE7FEE72702000850
:10012000ED0000080CB55648002101910091554999
:10013000096841F48031534A116000BF5149096890
:1001400001F4003100910199491C0191009919B9FC
:100150000199B1F5A06FF1D14A49096801F4003164
:1001600011B10121009101E00021009142F21070D3
:1001700000BF011EA0F10100FBD1009901294DD162
:100180004149096841F010013F4A11601146096870
:1001900021F0070111601146096841F00301116067
:1001A00038494968374A51601146496851601146DB
:1001B000496841F4806151601146496821F4403139
:1001C000516011460968C1F3130111601146496875
:1001D00041F4803151601146096841F0305111609D
:1001E0001146096841F08071116000BF2549096816
:1001F00001F000710029F9D02249496821F003017A
:10020000204A51601146496841F00201516000BF27
:100210001C49496801F00C010829F9D10CBD10B541
:10022000FFF780FF10BD10B51648006840F00100D0
:10023000144908600846406814490840114948605C
:1002400008460068124908400E49086008460068E0
:1002500020F4802008600846406820F4FE004860D2
:1002600008460068C0F3130008604FF41F00886060
:10027000FFF7D5FF4FF000600649086010BD000091
:10028000A086010000100240002002400C00FFF890
:10029000FFFFF6FE08ED00E010B50121480700F071
:1002A000ABFF00214FF0005000F0A6FF10BD30B5AD
:1002B000002200234D4C226840F6FE748440A24385
:1002C000D1E900452C438D682C43CD6844EA0503F1
:1002D00003FA00F42243454C226030BD0021016046
:1002E00041608160C160704739B1404A12680123A2
:1002F00083401A433D4B1A6006E03C4A12680123D2
:1003000083409A43394B1A60704741B1374A1268AB
:100310004FF4805383401A43344B1A6007E0334A4A
:1003200012684FF4805383409A43304B1A607047F1
:1003300010B551B12D4A121D126804090123A340C2
:100340001A432A4B1B1D1A6009E0284A121D126825
:1003500004090123A3409A43244B1B1D1A6010BDBE
:1003600040B12249091D096841F003011F4A121DCD
:10037000116007E01D49091D096821F003011B4AAE
:10038000121D1160704710B53AB1184B1B6801FA85
:1003900000F42343154C236006E0144B1B6801FA5C
:1003A00000F4A343114C236010BD114A0244C2F86B
:1003B000081470470E4A0244C2F81414704710B56E
:1003C0000023082802D142EA012301E042EA014366
:1003D000074C0444C4F8203410BD0146044A02EB23
:1003E0009100D0F82C0480B27047000000740040E7
:1003F0000070004001460020FE4A106800F03800FE
:10040000084310607047FB49096821F00801F94A68
:10041000116011460968014311607047F549096888
:1004200021F01001F34A116011460968014311607F
:100430007047F148EF494860F04848607047ED4820
:10044000006940F08000EB49086170470420E949E9
:10045000C96801F0010109B101200EE0E549C96850
:1004600001F0040109B1022007E0E249C96801F086
:10047000100109B1032000E00420704708B50020F6
:100480000090FF20009002E00098401E009000982D
:100490000028F9D108BD70B504460425FFF7D6FF42
:1004A000054605E0FFF7EAFFFFF7D0FF0546641EAB
:1004B000012D01D1002CF5D104B90525284670BDC8
:1004C00070B50546042440F6FF70FFF7E4FF0446CC
:1004D000042C19D1C748006940F00200C5490861E1
:1004E00008464561006940F04000086140F6FF7031
:1004F000FFF7D1FF0446012C06D0BE48006941F643
:10050000FD710840BB490861204670BD10B5042448
:1005100040F6FF70FFF7BFFF0446042C1AD14006D7
:10052000B44948610846006940F004000861084683
:10053000006940F04000086140F6FF70FFF7ABFF34
:100540000446012C06D0AB48006941F6FB71084017
:10055000A8490861204610BD10B5042440F6FF707C
:10056000FFF799FF0446042C3DD1A348A1498860B8
:10057000A24888600846006940F020000861A04851
:1005800048610846006940F04000086140F6FF708D
:10059000FFF781FF0446042C1CD19648006941F600
:1005A000DF710840934908610846006940F0100077
:1005B0000861A520924908800F20FFF76CFF0446D0
:1005C000012C10D08B48006941F6EF710840894931
:1005D000086108E0012C06D08648006941F6EF71F9
:1005E000084084490861204610BD70B505460E4696
:1005F00004240F20FFF74FFF0446042C25D17D482B
:10060000006940F001007B4908612E800F20FFF750
:1006100042FF0446042C0FD1300C68800F20FFF7F6
:100620003AFF0446012C10D07248006941F6FE7171
:1006300008407049086108E0012C06D06D48006947
:1006400041F6FE7108406B490861204670BD70B5E7
:1006500005460E4604240F20FFF71DFF0446042C18
:1006600013D16448006940F00100624908612E809E
:100670000F20FFF710FF0446012C06D05D480069EB
:1006800041F6FE7108405B490861204670BD70B5B7
:1006900005460E4604240F20FFF7FDFE0446042CF9
:1006A00017D1554853498860544888600846006906
:1006B00040F0100008612E800F20FFF7ECFE04468A
:1006C000012C06D04B48006941F6EF7108404949BA
:1006D0000861204670BD2DE9F04704464FF6FF76CD
:1006E0003746B046B1460425E443E6B2C4F30727D3
:1006F000C4F307484FEA14690F20FFF7CCFE054604
:10070000042D40D13C483B4988603C4888600846FD
:10071000006940F010000861FF2E06D0384808300C
:1007200006800F20FFF7B7FE0546042D08D1FF2FE6
:1007300006D033480A3007800F20FFF7ACFE05468D
:10074000042D0AD1B8F1FF0F07D02D480C30A0F8C6
:1007500000800F20FFF79FFE0546042D0AD1B9F156
:10076000FF0F07D026480E30A0F800900F20FFF7AB
:1007700092FE0546012D06D01E48006941F6EF7134
:1007800008401C4908612846BDE8F08770B5054659
:10079000042440F6FF70FFF77EFE0446042C4CD183
:1007A000154814498860154888601548486108460E
:1007B000006940F0200008610846006940F04000F0
:1007C000086140F6FF70FFF766FE0446042C2BD14B
:1007D0000848006941F6DF7108400649086108468B
:1007E000006940F01000086165B1002004490880EC
:1007F0000BE000000020024023016745AB89EFCDEC
:1008000000F8FF1FA5204549088040F6FF70FFF75C
:1008100042FE0446012C10D04148006941F6EF71B8
:1008200008403F49086108E0012C06D03C480069B7
:1008300041F6DF7108403A490861204670BD2DE954
:10084000F04107460D461646042436483449886070
:10085000354888600F20FFF71EFE0446042C1AD18D
:100860002F48006940F010002D49086147EA050053
:10087000304340F0F8002949891C08800F20FFF719
:100880000AFE0446012C06D02548006941F6EF71A6
:100890000840234908612046BDE8F0812048C0692E
:1008A000800870471E48006A704700201C49C969CB
:1008B00001F0020109B1012000E000207047002092
:1008C0001749096801F0200109B1012000E000206A
:1008D000704729B1124A12690243114B1A6104E0B0
:1008E0000F4A126982430E4B1A617047014600207D
:1008F000012908D10A4AD26902F001020AB1012095
:1009000008E0002006E0064AD2680A400AB1012049
:1009100000E0002070470249C860704700F8FF1FE0
:100920000020024023016745AB89EFCD10B5044696
:10093000AF48204448B1B0F5806F0FD0B0F5006FDC
:1009400015D0B0F5406F24D11AE00121042000F049
:1009500046FC0021042000F042FC1BE0012108209D
:1009600000F03DFC0021082000F039FC12E00121DC
:10097000102000F034FC0021102000F030FC09E0D1
:100980000121202000F02BFC0021202000F027FC7A
:1009900000E000BF00BF10BD10B50121084600F007
:1009A0001EFC0021012000F01AFC10BD2DE9F041D1
:1009B000024600250026002000230024002791F88D
:1009C00003C00CF00F0591F803C00CF0100CBCF143
:1009D000000F03D091F802C04CEA050591F800C061
:1009E000BCF1000F31D0146800202BE04FF0010C57
:1009F0000CFA00F3B1F800C00CEA03069E4220D1C5
:100A000083004FF00F0C0CFA03F7BC4305FA03FC0C
:100A10004CEA040491F803C0BCF1280F06D14FF052
:100A2000010C0CFA00FCC2F814C00AE091F803C0F3
:100A3000BCF1480F05D14FF0010C0CFA00FCC2F8D4
:100A400010C0401C0828D1D31460B1F800C0BCF11C
:100A5000FF0F34DD546800202EE000F1080C4FF049
:100A6000010808FA0CF3B1F800C00CEA03069E4234
:100A700021D183004FF00F0C0CFA03F7BC4305FAA9
:100A800003FC4CEA040491F803C0BCF1280F05D123
:100A900000F1080C08FA0CF8C2F8148091F803C0B1
:100AA000BCF1480F07D100F1080C4FF0010808FA1B
:100AB0000CF8C2F81080401C0828CED35460BDE862
:100AC000F0814FF6FF710180022181700421C17015
:100AD00070470246002093680B400BB1012000E0F4
:100AE000002070470146886880B2704702460020A7
:100AF000D3680B400BB1012000E000207047014695
:100B0000C86880B2704701617047416170470AB19F
:100B1000016100E041617047C16070474FF480326D
:100B20000A438261816182618269826970470246FB
:100B30000020304B18684FF68073184040EA0210CE
:100B400008432C4B186070472B49C8617047F0B5BB
:100B500002460023002400200025264E7068C2F3C0
:100B6000034593B202F44016B6F5401F05D100BF0D
:100B7000204E76681F4F7E600FE002F48016B6F5B7
:100B8000801F04D1032606FA05F4A04305E0560DA4
:100B9000360103FA06F6B04300BF21B1560D360107
:100BA00003FA06F63043134E7060F0BD30B50022F4
:100BB0008B071C0F0F2303FA04F20E4B08338C1023
:100BC00053F8243093430B4C08348D1044F82530EF
:100BD00023468C1053F824308C07240F00FA04F4B9
:100BE0002343044C08348D1044F8253030BD0000F8
:100BF00000F8FEBF00000140000020420E490860DE
:100C000070470D49486070470B49886070474AF645
:100C1000AA200949086070474CF6CC400649086094
:100C2000704701460020044AD2680A400AB10120F8
:100C300000E00020704700000030004034490143CC
:100C4000344A1160704770B5002100230F22C47828
:100C500004B3304C246804F4E064C4F5E064210A71
:100C6000C1F10403CA40447804FA03F184781440C3
:100C700021430901284C0678A155047804F01F058A
:100C80000124AC4005786D11AD0005F1E025C5F8F3
:100C9000004109E0047804F01F050124AC401F4D19
:100CA0000678761145F8264004786411A40004F112
:100CB000E024D4F8003170BD194A0A400243154BB4
:100CC0001B1F1A60704739B1124A121D1268024385
:100CD000104B1B1D1A6006E00E4A121D126882435B
:100CE0000C4B1B1D1A607047042808D14FF0E021FF
:100CF000096941F004014FF0E022116107E04FF073
:100D0000E021096921F004014FF0E02211617047F0
:100D10000000FA050CED00E000E400E080E100E0F6
:100D200080FFFF1FF948006840F00100F7490860A4
:100D300008464068F6490840F4494860084600689B
:100D4000F4490840F14908600846006820F4802012
:100D500008600846406820F4FE0048600020886073
:100D60007047EA49096821F48031E84A1160114668
:100D7000096821F480211160B0F5803F03D0B0F5FF
:100D8000802F0ED106E0E149096841F48031DF4A45
:100D9000116007E0DD49096841F4A021DB4A1160D8
:100DA00000E000BF00BF704710B5014600220023DD
:100DB00000204A11012A02D1D44C236806E0022AFD
:100DC00002D1D24C236A01E0D04C636A01F01F02C9
:100DD000012494401C400CB1012000E0002010BD13
:100DE00038B5002000900024002500BF3120FFF717
:100DF000DBFF05460098401C00901DB90098B0F537
:100E0000A06FF3D13120FFF7CFFF08B1012400E03C
:100E10000024204638BD01460020BC4A106820F05E
:100E2000F80040EAC10010607047012806D1B749B8
:100E3000096841F00101B54A116005E0B34909684C
:100E400021F00101B14A1160704710B5034600203E
:100E5000AE4C2068B04C20408C0644EA025420433B
:100E6000AA4C206010BD70B506460C460025A74868
:100E7000456825F47C153543456024B903220721D4
:100E80003046FFF7E2FFB4F5802F04D1012205219F
:100E90003046FFF7DAFFB4F5002F04D10122072115
:100EA0003046FFF7D2FFB4F5402F04D101220921CB
:100EB0003046FFF7CAFFB4F5801F04D101220B2191
:100EC0003046FFF7C2FFB4F5A01F04D101220D2167
:100ED0003046FFF7BAFFB4F5C01F04D101220F213D
:100EE0003046FFF7B2FFB4F5E01F04D10122112113
:100EF0003046FFF7AAFFB4F5001F04D101221321E9
:100F00003046FFF7A2FFB4F5101F04D101221521CE
:100F10003046FFF79AFFB4F5201F04D101221721B4
:100F20003046FFF792FFB4F5301F04D1012219219A
:100F30003046FFF78AFFB4F5401F04D101221B2180
:100F40003046FFF782FFB4F5501F04D101221D2166
:100F50003046FFF77AFFB4F5601F04D101221F214C
:100F60003046FFF772FF70BD30B16849096841F043
:100F70008071664A116005E06449096821F080715A
:100F8000624A1160704701460020604A506820F0B4
:100F900003000843506070475C48406800F00C0054
:100FA000704701460020594A506820F0F00008437D
:100FB0005060704701460020544A506820F4E060B9
:100FC00008435060704701460020504A506820F4A2
:100FD000605040EAC1005060704759B14B4A926876
:100FE0006FF30C02494B9A601A46926842EA00225B
:100FF0009A6005E0454A926822EA0022434B9A60D3
:1010000070474249496821F44001404A5160114605
:10101000496841EA805151607047014600203B4ACF
:10102000506820F44040084350607047012802D0C7
:1010300004280ED106E03549096A41F00101334A1E
:10104000116207E03149096A41F005012F4A116236
:1010500000E000BF00BF704730B12C49496A41F041
:1010600001012A4A516205E02849496A21F001013B
:10107000264A516270472549096A0143234A116291
:10108000704730B12149096A41F400411F4A116299
:1010900005E01E49096A21F400411C4A11627047AB
:1010A000F0B500210024002300250022174E7668A9
:1010B00006F00C0121B1042905D008293AD105E038
:1010C000164E066039E0154E066036E00F4E366863
:1010D000012707EB96640D4E3668C6F30256731C63
:1010E0000A4E766806F480352DB90D4E6643B6FB80
:1010F000F3F606601DE0054E766806F400369EB1F4
:10110000084E6643B6FBF3F6066012E0001002409C
:101110000000FFF8FFFFF6FEFFFF8F0300127A00CA
:10112000001BB70000093D004A4E6643B6FBF3F6CC
:10113000066002E0474E066000BF00BF464E76687C
:1011400006F0F0010909454E725C0668D64046601B
:10115000414E766806F4E061090A404E725C4668CA
:10116000D64086603C4E766806F46051C90A3B4E14
:10117000725C4668D640C660374E766806F44041D9
:10118000890B374E725CC668B6FBF2F60661F0BD9D
:1011900029B1314A526902432F4B5A6104E02E4A69
:1011A000526982432C4B5A61704729B12A4A92698D
:1011B0000243294B9A6104E0274A92698243264BF5
:1011C0009A61704729B1244AD2690243224BDA61FD
:1011D00004E0214AD26982431F4BDA61704729B18A
:1011E0001D4AD26802431C4BDA6004E01A4AD268F6
:1011F0008243194BDA60704729B1174A12690243DA
:10120000154B1A6104E0144A12698243124B1A61A9
:1012100070471449086070471349C86470470E4905
:10122000C87170470C48406A40F080700A494862B3
:10123000704701460020084A92680A400AB101201E
:1012400000E0002070470449896841EA0041024AF1
:101250009160704700127A000010024014000020D4
:1012600024000020400442420000424210B50446DF
:101270009F48204460B1B0F5784F13D10121080395
:10128000FFF7ADFF00214FF48050FFF7A8FF0AE001
:1012900001218803FFF7B0FF00214FF48040FFF7E2
:1012A000ABFF00E000BF00BF10BD10B50022028BF5
:1012B00002F470424B884C8923430C8823431A4321
:1012C0000283828B4FF6C0731A40CB89CC882343AC
:1012D0000C8923431A4342F018038383028C0022B3
:1012E0008B891A4302848B88082B07D0838B43F0A9
:1012F00004038383838B43F0080383838B88838574
:1013000010BD002101804180082181800021C18021
:101310000121018100214181022181810021C181BE
:10132000704721B1028B42F00102028304E0028B7C
:101330004FF6FE731A400283704710B53AB1038B23
:1013400043F002030383038A0B43038207E0038A0B
:101350008B430382038B4FF6FD742340038310BD40
:101360001AB1038B0B43038302E0038B8B4303838C
:1013700070471AB1038B0B43038302E0038B8B434B
:10138000038370470A46838DD9B20260082900DCC6
:1013900009B9130A0360102900DC09B9130C0360B2
:1013A000182900DC09B9130E0360704701460020BC
:1013B00000BF4A6810438A8D082A01DC8A8D12B961
:1013C0004A6840EA02208A8D102A01DC8A8D12B90F
:1013D0004A6840EA02408A8D182A01DC8A8D12B9D7
:1013E0004A6840EA0260704710B51AB1038D0B409D
:1013F000038503E0038D63EA0103038510BD4FF607
:10140000FE72914204D0028B42F00102028304E09A
:10141000028B4FF6FE731A4002837047028B4FF621
:10142000FF431A400283028B0A4302837047082954
:1014300003D1028B42F008020283102903D1028BF0
:1014400042F0100202834FF6F772914203D1028BF1
:101450000B461A4002834FF6EF72914203D1028B82
:101460000B461A400283704710B502460B46002413
:10147000908D082807D11089184008B1012400E098
:101480000024204610BD908D002804DD908D082892
:1014900001DC01210FE0908D102801DC02210AE01F
:1014A000908D182801DC032105E0908D1F2801DDB7
:1014B000908D00B904211089C0F30320884201DB1C
:1014C0000120DFE70020DDE70246002093890B4082
:1014D0000BB1012000E000207047828A0A4382821B
:1014E000704781847047828B0A4382837047000073
:1014F00000C8FFBF10B50446B4F1804F12D0F748C2
:101500002044C0B1B0F5806F1ED0B0F5943F24D117
:101510000121C802FFF763FE00214FF40060FFF7CE
:101520005EFE1BE001210846FFF766FE0021012058
:10153000FFF762FE12E001210220FFF75DFE0021AD
:101540000220FFF759FE09E001210420FFF754FEB5
:1015500000210420FFF750FE00E000BF00BF10BDD7
:10156000028802F08F020280CA884B881A430388DF
:101570001A4302808A8882850A880285D84A904266
:1015800001D10A7A028601228282704770B5002456
:1015900000220023058C4FF6FE7635400584028C30
:1015A0008388048B4FF68F752C400D882C43751E55
:1015B0002A400D892A434D882A43CD888586C84D07
:1015C000A84211D1F51F2A404D892A43F51E2A4011
:1015D0008D882A4347F6FF652B4047F6FF552B4081
:1015E0008D892B43CD892B4383800483028470BD76
:1015F00070B5002400220023058C4FF6EF763540AD
:101600000584028C8388048B48F6FF752C400D8876
:101610004FF6FF7606EA05252C434FF6DF752A4084
:101620000D8906EA05152A434D8806EA05152A4361
:10163000CD880587AA4DA8421BD14FF67F752A4059
:101640004D8906EA05152A434FF6BF752A408D8855
:1016500006EA05152A4347F6FF352B4047F2FF758A
:101660002B408D8906EA85052B43CD8906EA850541
:101670002B4383800483028470BD70B50024002254
:101680000023058C4FF6FF6635400584028C838865
:10169000848B4FF68F752C400D882C434FF6FF55E9
:1016A0002A400D894FF6FF7606EA05252A434D8824
:1016B00006EA05252A43CD888587894DA8421BD196
:1016C0004FF2FF752A404D8906EA05252A434FF659
:1016D000FF352A408D8806EA05252A4346F6FF7520
:1016E0002B4045F6FF752B408D8906EA05152B43E7
:1016F000CD8906EA05152B4383808483028470BD5F
:1017000070B5002400220023058C4EF6FF7635408C
:101710000584028C8388848B48F6FF752C400D88E5
:101720004FF6FF7606EA05252C434DF6FF752A4055
:101730000D8906EA05352A434D8806EA05352A4310
:10174000CD88A0F84050664DA84205D1C3F30D03E3
:101750008D8906EA85152B4383808483028470BDBE
:10176000828B4FF2FF331A408283828B4FF6FF73D6
:1017700003EA01231A4382837047F0B50C461546ED
:10178000002100220026078C4EF6FF7C07EA0C079A
:101790000784818B028C4FF6FF7707EA043640F608
:1017A000FF4739404FF6FF7707EA05274FF6FF7CE2
:1017B0000CEA033C47EA0C0739434DF6FF773A4001
:1017C00046F480573A4381830284F0BD828B4FF602
:1017D000F3731A408283828B0A4382837047F0B589
:1017E0000C461546002100220026078C4FF6FF6CA0
:1017F00007EA0C070784818B028C4FF6FF7707EA14
:1018000004264FF60C7739404FF6FF7707EA0317A7
:101810002F4339434FF6FF573A4046F480773A4317
:1018200081830284F0BD028B4FF2FF331A400283A2
:10183000028B4FF6FF7303EA01231A4302837047BA
:10184000F0B50C461546002100220026078C4FF605
:10185000EF7C07EA0C070784018B028C4FF6FF77B9
:1018600007EA041640F6FF4739404FF6FF7707EACC
:10187000033739434FF6FF7707EA052739434FF619
:10188000DF773A4046F010073A4301830284F0BD07
:10189000028B4FF6F3731A400283028B0A430283D2
:1018A0007047F0B50C46154600210022068C4FF615
:1018B000FE773E400684018B028C4FF60C76314059
:1018C0007E1C06EA03162E4331437E1E324044F04E
:1018D0000106324301830284F0BD000000FCFFBF1B
:1018E000002C014070B505460C46208850B923896C
:1018F000A28861882846FFF7D4FFE1882846FFF7D1
:10190000C7FF25E0208804280AD12389A28861889E
:101910002846FFF795FFE1882846FFF784FF17E088
:10192000208808280AD12389A28861882846FFF7E1
:1019300056FFE1882846FFF749FF09E02389A2887E
:1019400061882846FFF719FFE1882846FFF708FF5E
:1019500070BD2DE9F04105460C4600260127608840
:1019600008B9022600E00026A088012801D102273C
:1019700000E001272088A0B92389A2886188284631
:10198000FFF78FFFE1882846FFF782FF23893A4659
:1019900031462846FFF754FFE1882846FFF743FF0A
:1019A00013E02389A28861882846FFF749FFE18870
:1019B0002846FFF738FF23893A4631462846FFF785
:1019C00070FFE1882846FFF763FFBDE8F0810A88D1
:1019D0004B881A438B881A43CB881A430B891A43C6
:1019E0004B891A438B891A43A0F8442070474FF65D
:1019F000FF71818000210180C180418001727047A8
:101A00000021018041808180C180018141818181EB
:101A1000C181704700210180418001218180002126
:101A2000C180018170470021018041808180C18097
:101A3000018141818181704721B1028842F0010218
:101A4000028004E0028840F2FE331A4002807047B0
:101A500031B1B0F8442042F40042A0F8442005E03F
:101A6000B0F84420C2F30E02A0F84420704710B52D
:101A7000002300BF22B184890C438481838902E062
:101A800084898C43848110BD8182704741EA0203BE
:101A9000A0F8483070471AB183890B43838102E074
:101AA00083898B438381704701894FF6F872114017
:101AB000018170470A46002101894FF68F73194052
:101AC00011430181704730B504460D462946204632
:101AD000FFF7F0FF208940F00700208130BD2DE99D
:101AE000F04104460D4616461F46602D06D13B4682
:101AF000012231462046FFF7A3FE05E03B460122C6
:101B000031462046FFF7CDFE29462046FFF7D2FF9B
:101B1000208940F007002081BDE8F08170B50C46B7
:101B200000210189C9B244EA02054FF6FF7606EAB0
:101B3000032635432943018170BD2DE9F041054657
:101B40000E4617469846002443463A4631462846F4
:101B5000FFF7E4FF2C894FF6F870044044F00704C7
:101B60004FF68F70044044F070042C81BDE8F08182
:101B7000F0B504460D4616461F463B4632462946FA
:101B80002046FFF7CBFF208940F480402081F0BD44
:101B90000185828270470A460021018840F28F3316
:101BA0001940114301807047F0B50C4615461E469A
:101BB0000021002200230189028B038C4FF6F87765
:101BC000394021434FF6FC473A4040F201173A436F
:101BD0004FF6DD773B404FF6FF7707EA06172F43B6
:101BE0003B43018102830384F0BD0A460021018B3F
:101BF0004FF68F7319401143018370470A46002145
:101C0000018B48F6FF7319404FF6FF7303EA022376
:101C10001943018370470A460021818B4FF68F7369
:101C200019401143818370470A460021818B48F691
:101C3000FF7319404FF6FF7303EA022319438183B0
:101C4000704721B1028842F08002028004E00288DD
:101C500040F27F331A400280704721B1828842F0FF
:101C60000402828004E082884FF6FB731A4082806F
:101C7000704721B1828842F00802828004E08288A5
:101C80004FF6F7731A408280704721B1828842F084
:101C90000102828004E082884FF6FE731A4082803F
:101CA00070470A460021018B4FF6F7731940114324
:101CB000018370470A460021018B4FF2FF731940E0
:101CC0004FF6FF7303EA02231943018370470A4664
:101CD0000021818B4FF6F7731940114381837047C0
:101CE0000A460021818B4FF2FF7319404FF6FF73B4
:101CF00003EA02231943818370470A460021018BBE
:101D00004FF6FB7319401143018370470A460021C7
:101D1000018B4FF6FF3319404FF6FF7303EA02239E
:101D20001943018370470A460021818B4FF6FB73EC
:101D300019401143818370470A460021818B4FF679
:101D4000FF3319404FF6FF7303EA022319438183DF
:101D500070470A460021018B4FF67F7319401143EB
:101D6000018370470A460021018BC1F30E014FF633
:101D7000FF7303EA02231943018370470A460021D7
:101D8000818B4FF67F7319401143818370470A4658
:101D90000021818BC1F30E014FF6FF7303EA02238A
:101DA0001943818370470A460021018C4FF6FD7369
:101DB00019401143018470470A460021018C4FF6F7
:101DC000F77319401143018470470A460021018CC2
:101DD0004FF6DF7319404FF6FF7303EA02131943FE
:101DE000018470470A460021018C4FF67F73194029
:101DF0004FF6FF7303EA02131943018470470A4642
:101E00000021018C4FF6FF5319404FF6FF7303EA90
:101E100002231943018470470A460021018C4FF2C6
:101E2000FF7319404FF6FF7303EA0223194301843D
:101E300070470A460021018C4DF6FF7319404FF69A
:101E4000FF7303EA023319430184704710B5038C12
:101E500001248C40A3430384038C02FA01F4A4B24E
:101E60002343038410BD10B5038C04248C40A3438A
:101E70000384038C02FA01F4A4B22343038410BD4B
:101E800030B5038C01248C40A343038409B1082995
:101E900018D100F1180303EB61031B684FF68F7430
:101EA000234000F1180404EB6104236000F11803DF
:101EB00003EB61031B68134300F1180404EB610496
:101EC00023601FE00B1FC3F34E0400F118031B59DE
:101ED00048F6FF7423400C1FC4F34E0500F11804AC
:101EE00063510B1FC3F34E0400F118031B594FF647
:101EF000FF7404EA022423430C1FC4F34E0500F1CF
:101F00001804635130BD21B1028842F00202028000
:101F100004E0028840F2FD331A400280704721B18C
:101F2000028842F00402028004E0028840F2FB339F
:101F30001A400280704721B1828842F0800282807C
:101F400004E082884FF67F731A40828070470288CF
:101F500040F2F7331A40028002880A430280704739
:101F600082884FF68F731A40828082880A4382806B
:101F7000704702894FF6F8731A40028102890A43BA
:101F80000281704702894FF67F731A4002810289ED
:101F90000A4302817047818470478185704781863A
:101FA00070470187704781877047A0F840107047DD
:101FB0000288D2B2028002880A430280704701463A
:101FC000888E70470146088F70470146888F70479A
:101FD0000146B1F8400070470146888C70470146C1
:101FE000088D704702460020138A0B400BB1012078
:101FF00000E000207047CA430282704730B50246B5
:10200000002000230024158A05EA0103958905EACA
:10201000010413B10CB1012000E0002030BDCA431F
:102020000282704710B504465348204478B1B0F599
:10203000806F16D0B0F5744F1DD101218803FFF7D2
:10204000CEF800214FF48040FFF7C9F814E00121D9
:102050004804FFF7D1F800214FF40030FFF7CCF827
:102060000AE001218804FFF7C7F800214FF480201F
:10207000FFF7C2F800E000BF00BF10BD2DE9F0433C
:1020800085B004460D460026B046B14600272746D7
:10209000E66926F03606A888E988084329890843B6
:1020A0000643E661A66926F01F06A88969890843E8
:1020B0000643A6616846FEF7F3FF3048874202D127
:1020C000DDF80C8001E0DDF808802868B8FBF0F04E
:1020D000060926622868B8FBF0F000F00F09C4F882
:1020E000249005B0BDE8F0834FF416510160302113
:1020F00081800021C18001811821418100218181DD
:10210000704721B1826942F00102826104E0826974
:102110004FF6FE731A40826170471AB103690B4390
:10212000036102E003698B43036170471AB183695D
:102130000B43836102E083698B4383617047CAB2BA
:102140000260704701464868C0B2704702460020EE
:1021500093680B400BB1012000E0002070477047EE
:1021600002460020D3680B400BB1012000E00020A4
:10217000704741617047000000BCFFBF003801405C
:1021800010B504462CB90120FD49096808820020D9
:1021900010BDFC49096808688047F94800680A30A2
:1021A000F6E710B5F6480068C078F749F74A1278A4
:1021B00001EB42014978884213DCF14800688078DD
:1021C00078B9EF480068808858B9ED480068C07851
:1021D000EB4909688872EB49096848688047002024
:1021E00010BD0220FCE710B504462CB90120E449DB
:1021F00009680882002010BDE249096888688047A4
:10220000DF4800680C30F6E710B5DD4B1B68D97865
:10221000DB4B1B685879DE4B1B689A699047044674
:10222000D7480068807AE8B13CB9D54800680079A1
:1022300018B9D3480068807808B1022010BD8CB965
:10224000D0490968C8688047CD4800684079CC49C2
:102250000968C872CA480068C078C9490968087323
:102260000020EBE70220E9E710B504462CB9022074
:10227000C34909680882002010BD0020C5490880B4
:10228000BF480068007800F07F00E0B9BC490968E9
:10229000487A00F0200129B1BE49097841F00201D5
:1022A000BC4A117000F0400131B1BA49097801F01F
:1022B000FE01B84A117005E0B649097841F0010104
:1022C000B44A117033E0AE480068007800F07F0037
:1022D000012801D1AF48CFE7A9480068007800F095
:1022E0007F00022821D1A64A1268517901F00F001F
:1022F00001F0800262B1A84A1268012383401A40AB
:1023000092B1A44A127842F00102A24B1A700BE07B
:10231000A14A1268012383401A402AB19D4A1278CB
:1023200042F001029B4B1A7001E00020A4E795499E
:1023300009680869804797489EE72DE9F04790486B
:102340000068007800F07F08B8F1000F0AD18C48CF
:102350000068407A00F0DF0089490968487200206F
:10236000BDE8F087B8F1020F58D185480068408871
:1023700018B983480068007908B10220F0E7824864
:102380008249097800EB41097D480068477927F0C8
:1023900080052C467A480068407900F0800028B11A
:1023A0007D480068E04000F0010604E07A480068DB
:1023B000E04000F0010699F80000A84204D91EB1DF
:1023C0006F480068807A08B90220C9E707F08000EA
:1023D00078B171480068012121410840C0B16E48C0
:1023E000006801212141C94389B208406A49086057
:1023F0000EE06948006801212141084040B166486B
:10240000006801212141C94389B20840624908603E
:102410005C490968486980470020A1E700BF0220A5
:102420009EE72DE9F04156480068467926F0800481
:10243000254659480068E84000F0010752485349D2
:10244000097810F81100A84208D94D480068408862
:1024500020B91FB14A480068807A10B90220BDE84F
:10246000F0814D4800680121A94008434A490860AD
:1024700044490968886980470020F0E710B5404862
:102480000068407A40F020003D49096848723D49A3
:102490000968C8698047002010BD10B50246384859
:1024A0000068438A32B98888C01A354C2468208273
:1024B000002010BD08681844FBE72DE9F0413048C2
:1024C000006800F110042688A068A0B19EB1A5881C
:1024D000B54200D93546A8B2A1688847074620888A
:1024E000401B2080608828446080AAB200213846C2
:1024F00000F0C8FB00BF2088A188884204DB0320CD
:102500001F490968087219E02088002804DD0520A9
:102510001B490968087211E0208878B9062018491B
:102520000968087200BF1C484838006800F0800045
:102530000028F8D18020184948390860BDE8F081AA
:102540002DE9F0410E48006800F110052E880C4876
:102550000068077A36BB042F24D110480078012880
:102560001ED10D484838006800F08000C8B98020AE
:1025700009494839086000BF00200849087010E088
:10258000300000203C000020180100202D00002019
:102590003400002028000020885D00402A00002030
:1025A000072727E0AC88A64201D8042000E00220DB
:1025B0000746B44200D93446A0B2A968884780468D
:1025C000012C02D1022402202880FD48006800F07E
:1025D000800070B9A2B20021404600F03FFB44F0F9
:1025E0008000F74908602888001B288068882044FC
:1025F000688000BFF34909680F72BDE8F08170B5CB
:102600000226F04800684478EE480068007800F040
:102610007F0000284AD1092C03D1FFF7C2FD0646EE
:1026200065E0052C14D1E7480068C0787F280BDCF2
:10263000E4480068807838B9E2480068808818B9B2
:10264000E0480068807A08B1082569E000264EE07D
:10265000032C14D1DB480068C07801280DD1D9487B
:102660000068808848B9D7480068407A00F02000A8
:1026700018B1FFF703FF064639E0022637E0012CC8
:1026800035D1D0480068C07801280DD1CD48006808
:10269000808848B9CB480068407A00F0200018B123
:1026A000FFF74BFE064622E0022620E0C548006800
:1026B000007800F07F00012805D10B2C17D1FFF71F
:1026C000A3FD064613E0BF480068007800F07F00D5
:1026D00002280BD1012C03D1FFF72FFE064606E09E
:1026E000032C04D1FFF79DFE064600E002264EB102
:1026F000E0B2B54A1268516988470646032E01D1F7
:1027000009250DE006B10BE0062500BFAC480068C6
:1027100000F080000028F9D18020A949086000BF9E
:10272000A84909680D7270BD2DE9F84FA5480068E9
:1027300045784FF0000A0026062D1BD1A1480068FD
:10274000007800F07F00002813D19E49096888783E
:10275000012803D19C490968CE690AE0022803D107
:10276000994909680E6A04E0032802D1964909686C
:102770004E6A8DE0002D5BD19248006840880028A9
:1027800056D190480068C088022851D18D48006811
:10279000007900284CD18B480068007800F07F0059
:1027A00030B988480068808810B9AFF243566FE0AE
:1027B00084480068007800F07F00012811D1814929
:1027C00009684879804909688A690021904700288A
:1027D0005ED17C480068807A002859D0AFF27756E5
:1027E00056E078480068007800F07F0002284FD15A
:1027F00074480068407900F00F077248006840791B
:1028000000F070086E4848300068F84000F0010998
:102810006E486F49097810F81100B84238D9B8F1FC
:10282000000F35D1B9F1000F32D0AFF2C3562FE00F
:10283000082D08D163480068007800F07F0038BB9D
:10284000AFF2C36624E00A2D22D15E48006800780A
:1028500000F07F0001281BD15A480068807AB8B187
:1028600058480068408898B956480068007978B997
:1028700054480068C08801280AD15249096848793B
:10288000514909688A690021904708B9AFF2A966E1
:1028900056B14C480068A0F812A04A48006886610A
:1028A0000020B04700240FE0464A12685078464A9C
:1028B0001268116988470446032C05D10920414953
:1028C00009680872BDE8F88F3E480068008A4FF634
:1028D000FF71884204D109203A4909680872F1E77A
:1028E000022C03D037480068008A20B908203549F7
:1028F00009680872E6E733480068007800F0800055
:10290000E0B330480068C08800902E480068008A14
:102910000099884204D92B4900980968088223E06D
:1029200028480068008A27490968C98888421BDA54
:1029300024480068008A2449096891F82C108842CC
:1029400003DA0020234908700EE01E480068008A60
:102950001D49096891F82C1090FBF1F201FB12005F
:1029600010B901201B4908701748006890F82C1016
:10297000144800688182FFF7E3FD0AE0FFE7114891
:102980000068C0880F490968088203200D4909685A
:10299000087200BF96E70B480068007A082807D144
:1029A00007484830006840F0010005494831086098
:1029B00004480068007A09280ED101207047000001
:1029C000405D00403000002034000020180100204D
:1029D0002D0000202A0000200020EFE710B5484815
:1029E0000068007A092828D04648006844490968E8
:1029F00008704448001D0068414909684870414812
:102A00000C300168001F006841EA00203C49096859
:102A100048803C4814300168001F006841EA0020EB
:102A2000374909688880374818300168001D0068F8
:102A300041EA002032490968C8800120304909680C
:102A400008722F480068C08810B9FFF7D8FD01E070
:102A5000FFF76AFEFFF79FFF10BD10B5284800681A
:102A6000047A022C01D0042C05D1FFF769FD24481B
:102A70000068047A16E0062C13D1214800684078DB
:102A8000052809D11E480068007800F07F0018B9B9
:102A90001D490968086A80471C4909688868804799
:102AA00000E00824164909680C72FFF774FF10BD96
:102AB00010B513480068047A032C01D0052C05D109
:102AC000FFF7FBFC0E480068047A0EE0072C05D1E6
:102AD0000E490968C8688047082406E0022C01D026
:102AE000042C01D1082400E00824054909680C726F
:102AF000FFF751FF10BD0349203908607047704748
:102B000030000020805C00403C00002034000020A9
:102B100010B504460F4804700F48104908600220A1
:102B2000096808720B48007800EB40000C4901EB83
:102B300000100C4908600748007800EBC0000A4903
:102B400001EB800009490860064909680868804768
:102B500010BD00002D0000200005002030000020E6
:102B60001C010020340000207C0100203C000020DB
:102B700070B5002600243348006880B232490880CE
:102B800000F01000002859D010202E490860081DC0
:102B90000668B0B2091D086006F00100D8B1002037
:102BA0002A490870274808300468A0B2254908312E
:102BB000086004F0010010B1FFF710FF70BD04F0D1
:102BC000400010B1FFF774FFF8E704F0040010B103
:102BD000FFF743FFF2E726F0010078B301252BE071
:102BE0000120A840304028B3184805700078401EE6
:102BF000174901EB8000D0F8204CA1B213480078AF
:102C0000401E134A02EB8000C0F8201C04F00800AC
:102C100030B10E490978491E0E4A52F8210080470A
:102C200004F0400030B109490978491E0A4A52F8B7
:102C300021008047681CC5B2052DD1DB00BFBDE770
:102C400070470000045C0040C80000202C000020F9
:102C500000500040CC000020E800002070B5134672
:102C60000DE019B90478114D2C6006E005784C1E72
:102C70000F4E06EB8404C4F8645D401C5B1E002B01
:102C8000EFD170BD30B513460DE019B9074C24687B
:102C9000047006E04C1E064D05EB840494F8644D68
:102CA0000470401C5B1E002BEFD130BD605D004006
:102CB0000050004010B504462146ED48FEF762FB87
:102CC00000BF0221EA48FEF7CFFB0028F9D0E84810
:102CD000FEF76CFB10BD10B5FF21E548FEF752FB77
:102CE00000BF0221E248FEF7BFFB0028F9D0E04810
:102CF000FEF75CFBC4B2204610BD00B585B00121D3
:102D00000420FEF752FA2020ADF8000003208DF8D1
:102D1000020018208DF803006946D648FDF746FEEC
:102D20008020ADF8000003208DF8020018208DF8F7
:102D300003006946CF48FDF739FE4020ADF800009A
:102D400003208DF8020048208DF803006946C94829
:102D5000FDF72CFE01210820FEF727FA0120ADF82F
:102D6000000003208DF8020010208DF80300694652
:102D7000C148FDF71BFE0121BF48FDF7C4FE20211D
:102D8000BC48FDF7C2FE01210803FEF70EFAB84861
:102D9000FEF76CFA0420ADF804000020ADF8060040
:102DA0000820ADF808000020ADF80A000120ADF8B9
:102DB0000C000020ADF80E000220ADF8100000203D
:102DC000ADF8120001A9AA48FEF76FFA0821A84839
:102DD000FEF72DFB1021A648FEF729FB05B000BD2C
:102DE00070B50121A248FEF79CFA0121A248FDF727
:102DF0008CFE9020FFF75EFFFF20FFF75BFFFF20B8
:102E0000FFF758FF0020FFF755FFFFF764FF044668
:102E1000FFF761FF054601219748FDF774FEFF2C7F
:102E200001D0FF2D01D1002070BD0120FCE710B5BD
:102E300000218F48FEF775FA10BD10B501218E48AC
:102E4000FDF763FE6620FFF735FF01218A48FDF795
:102E50005AFE01218848FDF758FE9920FFF72AFF06
:102E600001218548FDF74FFE10BD10B501218248B4
:102E7000FDF74BFE0520FFF71DFFFFF72CFF044673
:102E800001217D48FDF73FFE04F0010008B101205B
:102E900010BD0020FCE710B50446B4F5001F03D3B5
:102EA000C4F30B0000B110BD01217348FDF72DFEE6
:102EB0000620FFF7FFFE01216F48FDF724FE0121E8
:102EC0006D48FDF722FE2020FFF7F4FEC4F3074013
:102ED000FFF7F0FEC4F30720FFF7ECFEE0B2FFF7C8
:102EE000E9FE01216448FDF70EFE00BFFFF7BDFFBC
:102EF0000128FBD000BFD6E710B50446B4F5001F8B
:102F000002D3A0B200B110BD01215B48FDF7FDFD69
:102F10000620FFF7CFFE01215748FDF7F4FD012100
:102F20005548FDF7F2FDD820FFF7C4FEC4F3074073
:102F3000FFF7C0FEC4F30720FFF7BCFEE0B2FFF7C7
:102F4000B9FE01214C48FDF7DEFD00BFFFF78DFF04
:102F50000128FBD000BFD6E710B501214648FDF798
:102F6000D4FD0620FFF7A6FE01214348FDF7CBFD67
:102F700001214148FDF7C9FDC720FFF79BFE012154
:102F80003D48FDF7C0FD00BFFFF76FFF0128FBD0F4
:102F900010BD2DE9F0410446884615460027B4F5DA
:102FA000001F01D3BDE8F081E6B2C6F58070A842EB
:102FB00001DAC6F5807501212F48FDF7A6FD062030
:102FC000FFF778FE01212C48FDF79DFD01212A48DD
:102FD000FDF79BFD0220FFF76DFEC4F30740FFF7EE
:102FE00069FEC4F30720FFF765FEE0B2FFF762FE5B
:102FF00005E018F80700FFF75DFE781C87B2AF42C6
:10300000F7DB01211C48FDF77EFD00BFFFF72DFF18
:103010000128FBD000BFC5E72DE9F04104460E466C
:1030200017460025B4F5001F01D9BDE8F081012144
:103030001148FDF76AFD0320FFF73CFEC4F307408B
:10304000FFF738FEC4F30720FFF734FEE0B2FFF7C6
:1030500031FE04E0FFF73FFE7055681C85B2BD42AB
:10306000F8DB01210448FDF74EFD00BFDDE700005D
:103070000030014000080140000C014008B501216A
:103080000420FEF792F84FF4C050ADF80000032082
:103090008DF8020014208DF8030069464448FDF7BE
:1030A00085FC08BD10B50120FDF7ABFF0121C80567
:1030B000FEF788F810BD03203E49086070473E487F
:1030C000817A19B105213B4A116002E00121394A98
:1030D0001160704708B513208DF8000000208DF8AE
:1030E00001008DF8020001208DF803006846FDF70D
:1030F000AAFD2A208DF8000000208DF801008DF82F
:10310000020001208DF803006846FDF79CFD08BD14
:1031100030B12A49096841F00201284A116006E0ED
:10312000264909684FF6FD721140244A1160704724
:1031300030B50B46002100BF16E00A24B4EB107F27
:1031400005D9302404EB107403F8114005E0412444
:1031500004EB10740A3C03F81140000100254C00F8
:10316000641C1D554C1CE1B29142E6DB30BD70B5CC
:1031700013480468001D0568001D0668B4B10822E4
:1031800010492046FFF7D4FF04220E49103128468B
:10319000FFF7CEFF08220C492046FFF7C9FF0422A3
:1031A000094910312846FFF7C3FF00BF70BD00007A
:1031B000000801404402002000050020005C00409F
:1031C000E8F7FF1F84000020A600002014480078C4
:1031D00018B901201349087005E01148007801284A
:1031E00001D000BFFEE770470F48006800F0800084
:1031F00028B901200D49087000200B49086070476C
:1032000010B504F091FC40B904F080FC0446402263
:103210000221FFF737FD04F07FFC10BD704700006E
:103220002D000020C6000020485D0040C70000209F
:1032300010B50446264948684FF4807105F043FCF8
:103240000320234949680870AA2021494968087267
:1032500000201F49496848721D4840688472BB219C
:103260001B48426804F10C00115410BD70B50446AF
:103270000D460220FFF7DCFF15484068C472144871
:103280004068057312484068807A11494968C97AD4
:1032900048400F494968097B48400D4949684873CF
:1032A00070BD10B504460A4844604068C07AA02842
:1032B00004D180210020FFF7D9FF04E08F210120F5
:1032C000FFF7D4FF00BF00BF10BD7047704700007C
:1032D0001C05002010B51E4800681E4908800846DD
:1032E000008800F0010058B10120194908601A490E
:1032F000097801EB4101194A02EB01114868804746
:103300001448008800F0080038B10820104908600F
:1033100013480078401C124908700E48008800F0DD
:10332000100008B1FFF724FC0A48008800F00200F2
:1033300020B102200649086000F019FB054800880A
:1033400000F0040010B104200149086010BD000025
:10335000045C0040C80000202D0000201C0100205B
:10336000CA00002010B5FFF702FF0020FA490968E3
:10337000887200F08FFA0020F849086010BD10B57F
:103380000020F54909688872F3490968C872F44851
:10339000C079F14909684872F24800684FF6FE7139
:1033A0000840F0490860EF484C38006840F04D0094
:1033B000EC494C3908604D20EA4958390860E94821
:1033C0002438006840F00800E649243908600820E5
:1033D000E44944390860E3482038006840F00800B8
:1033E000E049203908604820DE4940390860DD485E
:1033F000006840F00700DB490860DA485038006890
:1034000040F00700D749503908600020FFF773FBF0
:10341000D4486438006840F00800D2496439086034
:10342000084600684FF6F7710840CE4964390860D5
:103430000120CA49086010BDC7480068807A10B1F1
:103440000520C649086070470420C44908607047D9
:103450007047704710B5044644B9C348FFF721FFD1
:103460000F20BD4909680882002010BDBE48FCE756
:10347000014629B90220B84A12681082002070471C
:10348000BA48FCE7014651B90020B94A1080B24859
:103490000068C088B04A126810820020704700207F
:1034A000B14AB34B1B88D018B14A12880A44B04BBA
:1034B0001A8000BFF2E7014629B90120A64A126826
:1034C000108200207047AB48FCE710B50446A248C4
:1034D00000684079A84A02EBC0012046FEF7DDFFF4
:1034E00010BD10B504469C4800684079A34A02EB21
:1034F000C0012046FEF7D1FF10BD70B5044600257F
:10350000062C1BD194480068007800F07F00012849
:1035100014D191480068407902280FDA8E4800687B
:103520008078222802D1AFF2450525E08A4800685C
:103530008078212820D1AFF26D051DE08648006813
:10354000007800F07F00212816D1012C0FD0022C2A
:103550000AD0032C02D0092C0CD102E0AFF2A9054D
:1035600009E0AFF2DF0506E0AFF2FB0503E0AFF2E2
:103570001B1500E000BF00BF0DB9022070BD7648EA
:103580000068856100217448006841820020A847D6
:103590000020F3E770480068C1787448018000207B
:1035A00070476D480068C17872480160002070471C
:1035B00000B5024668480068007800F07F002128C6
:1035C0000BD10B2A02D1FFF7ECFF00BD0A2A02D172
:1035D000FFF7E0FFF9E70220F7E70220F5E710B573
:1035E000044667492046FEF758FF10BD10B5044653
:1035F00064492046FEF751FF10BD70B50546564898
:103600000068C478042C01DD002070BD5E4800EB2A
:10361000C4012846FEF741FFF7E70246002901DD15
:1036200002207047002A01DD0220FAE70020F8E7B7
:1036300010B5FFF79CFD002047490968887200F02B
:1036400029F900204549086010BD10B50020424905
:10365000096888724D48C0793F490968487200205E
:103660003D490968C8723F4800684FF6FE7108403E
:103670003C4908603B484C38006840F045003949F7
:103680004C39086045203749583908603548243896
:10369000006840F0080033492439086008203149A7
:1036A000443908602F482038006840F008002D4950
:1036B0002039086008202B494039086029481C3807
:1036C000006840F0400027491C3908604020254927
:1036D0003C3908602348006840F00F002149086029
:1036E00020485038006840F00F001E4950390860EB
:1036F0001C486438006840F008001A4964390860C2
:10370000084600684FF6F7710840164964390860AA
:103710000020FFF7F0F901201049086010BD1C4897
:10372000817A11B105210D4A1160704704200B49BF
:103730000860704717480078202802D100201549FA
:10374000087070477047014629B90820024A12687C
:103750001082002070471FE030000020440200204B
:1037600040000020645C0040280500200A01002081
:103770000801002004010020F4010020E4010020E1
:10378000C4010020D4010020040200208091000820
:10379000000500200C01002038487047014629B977
:1037A0000820374A12681082002070473348FCE72F
:1037B00070B504460025212C09D1314800680078F5
:1037C00000F07F00212810D1AFF22F050DE0202C52
:1037D0000BD12B480068007800F07F00212801D130
:1037E000AFF29D052020274908700DB9022070BD59
:1037F000234800688561002121480068418200203B
:10380000A8470020F3E701461D480068007800F053
:103810007F00212807D1022901D1002070472229E9
:1038200001D10020FAE70220F8E710B50446164956
:103830002046FEF732FE10BD10B50446134920465F
:10384000FEF72BFE10BD70B505460D480068C47824
:10385000042C01DD002070BD0D4800EBC40128469A
:10386000FEF71BFEF7E70246002901DD0220704744
:10387000012A01DD0220FAE70020F8E7100100200C
:10388000300000200C010020CC010020DC010020D1
:103890002402002010B50020FFF73AFC59480068C8
:1038A00040F0080057490860084600684FF6F77175
:1038B0000840544908601720091D0860514810301D
:1038C000006840F017004F49103108604D486430DF
:1038D00000684FF6FE7108404A4964310860494863
:1038E0001830006840F04D004649183108604D20FE
:1038F00044490C31086043484030006840F00800FB
:1039000040494031086008203E49203108603D4868
:103910004430006840F00C003A49443108604820C7
:1039200038492431086037486430006840F00100AD
:1039300034496431086033481430006840F00100B5
:103940003049143108600120FFF7E2FB002010BD70
:1039500010B52C48006840F008002A49086019207A
:10396000091D08600020FFF7D3FB002010BD10B533
:10397000FFF7A1FB10BD704700B5072801D0224911
:10398000087021490978082933D2DFE801F0040AD8
:10399000101621273334FFF7EEFF06211A4A117063
:1039A0002DE0FFF7E8FF0421174A117027E00221FC
:1039B000154A51700321117021E013494978491EBD
:1039C000114A51701146497809B90421117016E065
:1039D00005210D4A11700A21517010E00A494978F9
:1039E000491E094A51701146497809B906211170DA
:1039F00005E000BF00BF0621034A117000BF00BFF1
:103A000000BD0000005C00404902002008B54FF4F2
:103A1000E13000F051F801210820FDF7C6FB48F223
:103A20000800ADF8000003208DF8020010208DF88A
:103A3000030069461D48FCF7B9FF08211B48FDF744
:103A400064F84FF400411948FDF75DF808BD10B562
:103A500008211648FDF757F800F0BEF810BD10B564
:103A600008211248FDF751F84FF400410F48FDF7C7
:103A70004AF800F0B7F810BD10B54FF400410B48FC
:103A8000FDF743F810BD10B54FF400410748FDF7AE
:103A90003AF810BD10B500F0D5F810BD10B500F023
:103AA000DBF810BD10B500F0EAF810BD000C0140C5
:103AB0000A7802707047704710B586B0044625201A
:103AC0008DF8000000208DF801008DF80200012023
:103AD0008DF803006846FDF7B6F801210420FDF7D4
:103AE00064FB4FF40070ADF8140003208DF816004D
:103AF00018208DF8170005A99548FCF757FF4FF4DB
:103B00008060ADF8140003208DF8160004208DF8B5
:103B1000170005A98E48FCF749FF01218803FDF72E
:103B200044FB01943020ADF808000020ADF80A00F5
:103B3000ADF80C001820ADF80E000020ADF8100014
:103B400001A98448FEF79AFA012211468148FEF73E
:103B5000E4FA012202217F48FEF7DFFA01218020EA
:103B600005F048F97C4908607C497B48006805F00D
:103B700017F90121202005F03DF9794908607749BE
:103B80007748006805F00CF906B010BD014675488D
:103B9000007808280BDA7448724A127840F822102C
:103BA00070480078401C6F4A107001207047002058
:103BB000FCE701466D48007808280BDA6C486B4A30
:103BC000127840F8221069480078401C674A10704B
:103BD000012070470020FCE710B501215D48FEF789
:103BE00090FA10BD10B55C48006805F0E5F85C4837
:103BF000006805F0E1F800215648FEF782FA10BD92
:103C000038B50446009472B65A48008830B162B69E
:103C100069465348006805F037F911E001214D4825
:103C2000FEF794FA012805D121464A48FEF787FAA3
:103C300062B638BD62B669464948006805F024F9A5
:103C400000BFF6E710B54448006805F0C6F808B1B3
:103C5000012010BD0020FCE708B569463E48006819
:103C600005F0F0F89DF8000008BD10B53A4800686E
:103C700005F0A2F83A48006805F09EF810BD08B5B6
:103C800072B63C48008830B13A480088401E394935
:103C9000088062B615E03248006805F09EF878B1F9
:103CA00001212C48FEF752FA012809D169462C4817
:103CB000006805F0C7F89DF800102648FEF73FFAA7
:103CC00062B608BD38B5002401212248FEF748FA43
:103CD00001281CD101211F48FEF74BFA204800683B
:103CE00005F07BF848B169461D48006805F0AAF860
:103CF0009DF800101748FEF722FA05E01C4951F81C
:103D000024008047601CC4B2082CF7DB1FE00221AE
:103D10001048FEF725FA012819D102210D48FEF7B7
:103D200028FA0C48FEF70EFAC0B2009069460A481D
:103D3000006805F0A9F801200E49088005E00A494D
:103D400051F824008047601CC4B2082CF7DB38BD52
:103D500000080140003801404C020020B13A000840
:103D600050020020980200205802002099020020F2
:103D7000780200205402002010B5034614460A7849
:103D8000802A02DA1A60012010BD4FF0FF30FBE7F5
:103D90000346802902D21970012070474FF0FF308E
:103DA000FBE72DE9F04107460D4616462C78802C9E
:103DB00006DA324629463846FFF7DEFFBDE8F081D5
:103DC000812C0CDBFF2C0ADA022E02DA6FF00100E4
:103DD000F4E702222946384600F080FBEEE74FF078
:103DE000FF30EBE7F8B505460F4616463246394632
:103DF0002846FFF7CDFF0446601C08B12046F8BDF9
:103E000002223946684600F0DFFB0446601C80B1A0
:103E1000022C01D0AFF30080022E02DA6FF0010015
:103E2000EDE79DF8000028709DF801006870022001
:103E3000E5E74FF0FF30E2E72DE9F04104460D469B
:103E40001646324629462046FFF7ABFF0746781C48
:103E500010B13846BDE8F0812A78802A04D142F2B8
:103E6000AC0020600120F5E7A22A0DD1022E02DA73
:103E70006FF00100EEE76978E32904D14EF26C702F
:103E800020600220E6E77AE0A62A23D1022E02DA99
:103E90006FF00100DEE76978D92908DBE02906DA4E
:103EA0004EF28D700844D93820600220D2E7EC2908
:103EB00008DBEE2906DA4EF294700844EC382060F4
:103EC0000220C7E7F32904D14EF296702060022049
:103ED000C0E754E0A82A14D1022E02DA6FF00100E4
:103EE000B8E76978BC2904D14EF2C770206002207F
:103EF000B0E7BF2904D14EF2C87020600220A9E7C4
:103F00003DE0A92A1CD1022E02DA6FF00100A1E7E0
:103F10006978892908DB962906DA4EF2E7700844A9
:103F200089382060022095E7F02908DBF52906DAB8
:103F30004EF601000844F038206002208AE71EE0B7
:103F4000FE2A1CD1022E02DA6FF0010082E76978A6
:103F5000502908DB7F2906DA4EF615000844503850
:103F60002060022076E7802908DBA12906DA4EF6D8
:103F7000440008448038206002206BE700BF4FF007
:103F8000FF3067E72DE9F04106460D469046424670
:103F900029463046FFF726FF0746781C10B1384601
:103FA000BDE8F08142F2AC00854203D18020307040
:103FB0000120F5E74EF26C70854205D1A2203070E9
:103FC000E32070700220EBE74EF28D7085420DD336
:103FD000C01D85420AD2A5F567408D384AF2D961E5
:103FE0004418200A307074700220D9E74EF29470A1
:103FF00085420DD3801C85420AD2A5F567409438CE
:104000004AF2EC614418200A307074700220C7E74D
:104010004EF29670854206D14AF2F364200A30705F
:1040200074700220BCE74EF2C770854206D14AF692
:10403000BC04200A307074700220B1E74EF2C870E0
:10404000854206D14AF6BF04200A307074700220FF
:10405000A6E74EF2E77085420ED34EF2F470854229
:104060000AD2A5F56740E7384AF689114418200AB4
:1040700030707470022093E7B5F5684F0DD94EF695
:104080000600854209D2401F281A4AF6F01144184A
:10409000200A30707470022082E74EF615008542C7
:1040A0000ED34EF6440085420AD2A5F56840153875
:1040B0004FF650614418200A3070747002206FE788
:1040C0004EF6440085420ED34EF6650085420AD274
:1040D000A5F5684044384FF680614418200A3070D6
:1040E000747002205CE74FF0FF3059E72DE9F0478C
:1040F00081460E4692463778A62F01D0A82F52D17E
:10410000BAF1020F4CDB7578402D01DB7F2D03DB0C
:10411000802D42DBFF2D40DA802D01DB412000E0C5
:104120004020291AA7F18100BE2202FB00144FF69D
:10413000FD7841F6F240844213D241F615408442A4
:1041400021D341F62B4084421DD2A4F5E05115390C
:1041500043F65E3202EB410000F070F81FFA80F87F
:1041600011E041F66C5084420DD3801D84420AD286
:10417000A4F5E8516C3943F68A3202EB410000F0B5
:104180005DF81FFA80F84FF6FD70804504D0C9F83D
:1041900000800220BDE8F08700BF4FF0FF30F9E754
:1041A0006FF00100F6E74FF0FF30F3E72DE9F04143
:1041B00005460C461746022F3BDB0026B4F5A07FD0
:1041C0000BD3B4F5A87F08D2A4F5A0711A4A02EB6C
:1041D000410000F033F886B221E0B4F5147F0CD32F
:1041E000B4F51A7F09D2A4F51471134A203202EBF8
:1041F000410000F023F886B211E04FF630608442AF
:104200000DD34FF64860844209D2A4F57E4130397F
:10421000094A503202EB410000F010F886B22EB18C
:10422000301228706E700220BDE8F0814FF0FF3030
:10423000FAE76FF00100F7E7A637010038B504464A
:1042400001222146684601F012F99DF80050641CD5
:1042500001222146684601F00AF99DF8000005EBAD
:10426000002085B228B238BD70B50446134D012236
:104270002146284601F0FBF8641C6D1C01222146F2
:10428000284601F0F4F8641C6D1C012221462846E2
:1042900001F0EDF8641C6D1C01222146284601F056
:1042A000E6F8E81E70BD38B504460122214668468E
:1042B00001F0DDF89DF8000038BD00009A020020F2
:1042C0002DE9F04780460E4691463578212D01DBD9
:1042D000292D03DD302D40DB772D3EDCB9F1020FB7
:1042E00038DB7778212F32DB7F2F30DAA7F12100FE
:1042F000A5F121015E2202FB01044FF6FD7A40F296
:10430000825084420BD240F23F30844215D20021C9
:1043100001EB4400FFF792FF1FFA80FA0DE041F62F
:10432000F270844209D2A4F2825140F27E6202EB22
:104330004100FFF783FF1FFA80FA4FF6FD708245B8
:1043400004D0C8F800A00220BDE8F08700BF4FF0FD
:10435000FF30F9E76FF00100F6E74FF0FF30F3E7C9
:104360002DE9F04706460C469046B8F1020F7CDB7B
:10437000002700BFB4F58C6F07D22109534A02EB26
:104380008100FFF771FF07465AE0B4F5005F0ED3D6
:1043900042F2506084420AD24FF40071C1EB141112
:1043A0004B4A02EB8100FFF75FFF074648E0B4F598
:1043B000405F0ED343F2302084420AD24FF4407162
:1043C000C1EB1411434A02EB8100FFF74DFF074692
:1043D00036E0B4F59C4F0FD349F6F04084420BD23F
:1043E0004FF49C61C1EB14113A4A8C3202EB81000C
:1043F000FFF73AFF074623E0B4F51E4F0ED349F608
:10440000B07084420AD24FF41E61C1EB1411324ADB
:1044100002EB8100FFF728FF074611E0B4F57F4F5C
:104420000ED34FF6F07084420AD24FF47F61C1EB95
:104430001411294A6C3202EB8100FFF715FF074681
:10444000DFB37D8804F00F09012000FA09F028404D
:10445000A0B3012000FA09F0401E054045F2555076
:1044600028404AF6AA21294000E02CE000EB610533
:1044700043F2333028404CF6CC41294000EBA105F3
:1044800040F60F7028404FF2F001294000EB211553
:10449000E8B200EB2525398829444AF6B63202EB0A
:1044A0004100FFF7CBFE1FFA80FA4FEA2A20307056
:1044B00086F801A00220BDE8F08701E0FFE700BF19
:1044C0004FF0FF30F7E76FF00100F4E70A2001003A
:1044D00022210100B6220100FE3601002DE9F84339
:1044E00006460F4691463C78812C6ADBFF2C68DA41
:1044F000B9F1020F03DA6FF00100BDE8F883A12CD7
:104500003BDBF72C39DC7D78A12C0CD1A42D03D119
:10451000B72030600220F0E7AA2D04D142F2140047
:1045200030600220E9E7A12D26DBFF2D24DAA4F17B
:104530008000C0B28DF80000A5F18000C0B28DF8F7
:104540000100022269463046FFF7BAFE804608F1B4
:10455000010008B14046D0E78DF800408DF80150C9
:10456000022269463046FFF7C1FD804608F101008E
:1045700008B14046C1E700BF00BF812C07DBA02C7B
:1045800005DC02223946304600F090F9B5E7A82C48
:1045900007DBFE2C05DC02223946304600F0C7F965
:1045A000ABE7A22C0DD17978A12909DBAA2907DC78
:1045B000A1F1A10042F270121044306002209CE789
:1045C00000BF4FF0FF3098E7F8B504460D46174698
:1045D00043F2FB0085421ED042F2150085421AD0FC
:1045E000022229466846FFF7BBFE0646701C90B1C2
:1045F000022E01D0AFF30080022F02DA6FF001002B
:10460000F8BD9DF80000803020709DF801008030DA
:1046100060700220F4E702222946684600F060F844
:104620000646701C80B1022E01D0AFF30080022F2D
:1046300002DA6FF00100E3E79DF8000020709DF8BA
:10464000010060700220DBE742F2701085420FD358
:1046500042F2791085420BD8022F02DA6FF0010086
:10466000CEE7A220207005F2311060700220C7E76B
:10467000022229466846FFF799FD0646701C80B164
:10468000022E01D0AFF30080022F02DA6FF001009A
:10469000B6E79DF8000020709DF8010060700220D0
:1046A000AEE7B72D0AD1022F02DA6FF00100A7E7BB
:1046B000A1202070A42060700220A1E742F2140023
:1046C00085420AD1022F02DA6FF0010098E7A1209B
:1046D0002070AA206070022092E74FF0FF308FE731
:1046E0002DE9F04706460C469046B8F1020F7DDBF7
:1046F0000027B4F5007F0CD3B4F5387F09D2202110
:10470000C1EB1411654A02EB8100FFF7ADFD0746CE
:1047100081E0B4F5005F0ED3B4F50B5F0BD24FF41C
:104720000071C1EB14115D4A383202EB8100FFF7D2
:104730009BFD07466FE0B4F5145F0FD342F21060A3
:1047400084420BD24FF41471C1EB1411534AE83276
:1047500002EB8100FFF788FD07465CE0B4F5405F9F
:104760000DD3B4F5445F0AD24FF44071C1EB14117C
:104770004B4A02EB8100FFF777FD07464BE0B4F5AB
:10478000485F0FD343F2E03084420BD24FF44871BC
:10479000C1EB1411424A403202EB8100FFF764FD85
:1047A000074638E0B4F59C4F0FD349F6B070844209
:1047B0000BD24FF49C61C1EB1411394AB83202EBB1
:1047C0008100FFF751FD074625E0B4F5794F10D37E
:1047D0004FF6302084420CD24FF47961C1EB1411B2
:1047E000304A02EB8100FFF73FFD00E053E007464F
:1047F00011E0B4F57E4F0ED34FF6F07084420AD22A
:104800004FF47E61C1EB1411264A4C3202EB810059
:10481000FFF72AFD0746C7B37D8804F00F09012082
:1048200000FA09F0284088B3012000FA09F0401E80
:10483000054045F2555028404AF6AA21294000EB90
:10484000610543F2333028404CF6CC41294000EB5F
:10485000A10540F60F7028404FF2F001294000EB0F
:104860002115E8B200EB2525398829440E4A02EBD0
:104870004100FFF7E3FC1FFA80FA4FEA2A2030706C
:1048800086F801A00220BDE8F08701E0FFE700BF45
:104890004FF0FF30F7E76FF00100F4E7F8A70100F1
:1048A00024A9010048BE0100263801002DE9F04787
:1048B00081460E4692463778812F35DBA02F33DCB8
:1048C000BAF1020F2DDB7478402C01DB7F2C03DB67
:1048D000802C23DBFF2C21DA802C01DB412000E03F
:1048E0004020211AA7F18100BE2202FB00154FF6DD
:1048F000FD78B5F5BE5F07D243F6963101EB450072
:10490000FFF79CFC1FFA80F84FF6FD70804504D03D
:10491000C9F800800220BDE8F08700BF4FF0FF30EB
:10492000F9E76FF00100F6E74FF0FF30F3E72DE90C
:10493000F04781460D4692462E78A82E38DBFE2E93
:1049400036DCBAF1020F30DB6C78402C01DB7F2CB7
:1049500003DB802C26DBA12C24DA802C01DB412018
:1049600000E04020211AA6F18100602202FB00171E
:104970004FF6FD7842F6F060874209D2A7F56A61EA
:1049800046F6163202EB4100FFF758FC1FFA80F89A
:104990004FF6FD70804504D0C9F800800220BDE8C4
:1049A000F08700BF4FF0FF30F9E76FF00100F6E746
:1049B0004FF0FF30F3E730B5034614460A78802AFB
:1049C00002DA1A60012030BDC22A02DA4FF0FF304D
:1049D000F9E7E02A16DA022C02DA6FF00100F2E7BA
:1049E000487880F08000402802DB4FF0FF30EAE793
:1049F000487880F0800002F01F0540EA85101860BA
:104A00000220E0E7F02A24DA032C02DA6FF001003A
:104A1000D9E7487880F08000402809DA887880F06B
:104A20008000402804DAE12A05DA4878A02802DA72
:104A30004FF0FF30C7E71007000C4D7885F0800578
:104A400040EA85108D7885F08005284318600320A2
:104A5000B9E7F82A2FDA00BF042C02DA6FF0010060
:104A6000B1E7487880F0800040280EDA887880F03E
:104A70008000402809DAC87880F08000402804DAF5
:104A8000F12A05DA4878902802DA4FF0FF309AE7E9
:104A90005007C00A4D7885F0800540EA05308D78D2
:104AA00085F0800540EA8510CD7885F080052843A3
:104AB0001860042087E7FC2A39DA00BF052C02DAE7
:104AC0006FF001007FE7487880F08000402813DA1B
:104AD000887880F0800040280EDAC87880F0800066
:104AE000402809DA087980F08000402804DAF92AA1
:104AF00005DA4878882802DA4FF0FF3063E790073C
:104B000080094D7885F0800540EA85408D7885F0F4
:104B1000800540EA0530CD7885F0800540EA8510B3
:104B20000D7985F080052843186005204BE7FE2AA3
:104B300043DA00BF062C02DA6FF0010043E7487841
:104B400080F08000402818DA887880F080004028C3
:104B500013DAC87880F0800040280EDA087980F0F7
:104B60008000402809DA487980F08000402804DA83
:104B7000FD2A05DA4878842802DA4FF0FF3022E770
:104B8000D00740084D7885F0800540EA05608D78B3
:104B900085F0800540EA8540CD7885F0800540EAC3
:104BA00005300D7985F0800540EA85104D7985F056
:104BB000800528431860062005E74FF0FF3002E724
:104BC00010B503461446802901D201221BE0B1F53D
:104BD000006F01D2022216E0B1F5803F01D203221C
:104BE00011E0B1F5001F01D204220CE0B1F1806F99
:104BF00001D2052207E0B1F1004F01D2062202E006
:104C00004FF0FF3010BD944202DA6FF00100F9E777
:104C1000072A34D2DFE802F03331281F160D0400D2
:104C200001F03F0040F080005871890941F0806137
:104C300000BF01F03F0040F080001871890941F485
:104C4000001100BF01F03F0040F08000D8708909DA
:104C500041F4803100BF01F03F0040F080009870C7
:104C6000890941F4006100BF01F03F0040F080007D
:104C70005870890941F0C00100BF197000BF00BF22
:104C80001046BFE700B585B0012141F20C00FCF7EA
:104C90008CFA2020ADF8100018208DF813000320A6
:104CA0008DF8120004A96F48FBF780FE8020ADF854
:104CB000100018208DF8130004A96A48FBF776FE4F
:104CC0004020ADF8100048208DF8130004A9654875
:104CD000FBF76CFE0120ADF8100010208DF81300DA
:104CE00004A96148FBF762FE01215F48FBF70BFF57
:104CF00020215C48FBF709FF0420ADF800000020EC
:104D0000ADF802000820ADF804000020ADF8060060
:104D10000120ADF808000020ADF80A001020ADF821
:104D20000C000020ADF80E0069465048FCF7BDFAB3
:104D300008214E48FCF77BFB10214C48FCF777FB21
:104D400001214A48FCF7EDFA05B000BD10B5044654
:104D500021464648FCF716FB00BF02214348FCF7FA
:104D600083FB0028F9D04148FCF720FBC0B210BDFE
:104D700008B501210820FCF718FA4FF40050ADF8EF
:104D8000000010208DF8030003208DF80200694612
:104D90003548FBF70BFE4FF48050ADF80000694634
:104DA0003148FBF703FE4FF400512F48FBF7ADFEEF
:104DB0004FF480512C48FBF7A6FE08BD70B50546A0
:104DC00000264AE02848001D006820F0706026494F
:104DD000091D08600846006840F04070086005F052
:104DE000800028B14FF480411F48FBF78CFE04E09F
:104DF0004FF480411C48FBF788FE6806050E00BF93
:104E000000BF00BF00BF4FF400511748FBF77BFE07
:104E10001548001D006820F070601349091D0860E6
:104E20000846006840F0006008606006040E4FF419
:104E300080410D48FBF74DFE10B144F0010401E044
:104E400004F0FE0400BF00BF00BF00BF4FF40051DC
:104E50000548FBF75AFE701CC6B2082EB2DB20468E
:104E600070BD000000080140000C0140003001400E
:104E700038B504460D467548844203D125208DF887
:104E800000000CE07248844203D126208DF8000017
:104E900005E07048844202D127208DF800000220EE
:104EA0008DF801008DF8025001208DF8030068464E
:104EB000FBF7C9FE38BD30B585B004460D466348E2
:104EC00084421ED101210420FCF76FF96015ADF872
:104ED000100002208DF8120018208DF8130004A98C
:104EE0005D48FBF763FD2015ADF8100002208DF83A
:104EF000120048208DF8130004A95748FBF756FD0F
:104F000042E0534884421ED101210420FCF74DF9B0
:104F10000420ADF8100002208DF8120018208DF842
:104F2000130004A94C48FBF741FD0820ADF8100020
:104F300002208DF8120048208DF8130004A946487D
:104F4000FBF734FD20E0434884421DD101211020AD
:104F5000FCF72BF92015ADF8100002208DF8120097
:104F600018208DF8130004A93C48FBF71FFDE0143E
:104F7000ADF8100002208DF8120048208DF81300C3
:104F800004A93648FBF712FD3048844204D10121C0
:104F90008803FCF70AF90EE02D48844204D1012170
:104FA0004804FCF70FF906E02A48844203D10121A6
:104FB0008804FCF707F900953020ADF804000020C4
:104FC000ADF80600ADF808001820ADF80A00002082
:104FD000ADF80C0069462046FDF750F80122022189
:104FE0002046FDF79AF8002201212046FDF795F8AA
:104FF00002212046FFF73CFF01212046FDF781F802
:1050000005B030BD70B504460D4629462046FDF773
:1050100096F800BF01212046FDF798F80028F9D046
:1050200070BD2DE9F04107460D461646002408E004
:10503000295D3846FFF7E6FF642002F0B5FA601CF0
:1050400084B2B442F4DBBDE8F081000000380140D6
:1050500000440040004800400008014000100140AA
:10506000016082800023C3804381038170472DE962
:10507000F04104460E4615460DB106B11CB94FF07D
:10508000FF30BDE8F081E08808B90020F9E7E0884A
:10509000A84200DAE58860892844A188884214DDA6
:1050A000A0886189401A87B26289206881183A46CF
:1050B000304603F0EFFC3E44E81B87B23A463046E8
:1050C000216803F0E7FC67810FE06289206881189E
:1050D0002A46304603F0DEFC608928446081A088BF
:1050E0006189884201D100206081E088401BE08016
:1050F00068B2C6E72DE9F04104460F4615460DB1EA
:1051000007B11CB94FF0FF30BDE8F081E0882844BA
:10511000A188884202DD4FF0FF30F5E7E08828449F
:10512000E08020892844A188884214DDA088218954
:10513000401A86B22289216888183246394603F01F
:10514000A9FC3744A81B86B232463946206803F0D2
:10515000A1FC26810FE02289216888182A46394659
:1051600003F098FC208928442081A0882189884266
:1051700001D10020208168B2C6E700214181018170
:10518000C18070470146C888704700002DE9F04192
:1051900000240025002600270121C848FBF7B5FCA4
:1051A0009F20FFF7D3FDFF20FFF7D0FD0546FF202E
:1051B000FFF7CCFD0646FF20FFF7C8FD074601219B
:1051C000BE48FBF7A0FC280440EA062040EA07049A
:1051D0002046BDE8F08110B5FFF754FDFFF7D6FF7C
:1051E00010BD10B50121B548FBF78FFC0620FFF775
:1051F000ADFD0121B148FBF786FC10BD10B50024C0
:105200000121AE48FBF781FC0520FFF79FFD00BFA1
:10521000FF20FFF79BFD044604F001000028F7D1B2
:105220000121A648FBF76FFC10BD10B50446FFF73F
:10523000D8FF0121A148FBF768FC2020FFF786FD7D
:10524000C4F30740FFF782FDC4F30720FFF77EFD9C
:10525000E0B2FFF77BFD01219848FBF754FCFFF714
:10526000CDFF10BD10B50446FFF7BBFF01219348E9
:10527000FBF74BFC5220FFF769FDC4F30740FFF733
:1052800065FDC4F30720FFF761FDE0B2FFF75EFDA7
:1052900001218A48FBF737FCFFF7B0FF10BD10B5BE
:1052A0000446FFF79EFF01218448FBF72EFCD8201F
:1052B000FFF74CFDC4F30740FFF748FDC4F3072098
:1052C000FFF744FDE0B2FFF741FD01217B48FBF70A
:1052D0001AFCFFF793FF10BD10B5FFF782FF012105
:1052E0007648FBF712FCC720FFF730FD0121734819
:1052F000FBF709FCFFF782FF10BD70B505460C46B1
:105300001646FFF76EFF01216C48FBF7FEFB0220FB
:10531000FFF71CFDC4F30740FFF718FDC4F3072097
:10532000FFF714FDE0B2FFF711FD03E02878FFF767
:105330000DFD6D1C301EA6F101018EB2F6D10121CA
:105340005E48FBF7E0FBFFF759FF70BD2DE9F05F0A
:1053500007460E4614464FF00008C146C2460025D7
:10536000AB4606F0FF0ACAF10000C5B22046E117BD
:1053700004EB1161C1F30728E11704EB1161091275
:10538000A4EB012101F0FF09BAF1000F20D1B8F11F
:10539000000F05D1224631463846FFF7AEFF64E0E4
:1053A00009E04FF4807231463846FFF7A6FF06F554
:1053B000807607F58077B8F10000A8F1010101F0CF
:1053C000FF08EED14A4631463846FFF796FF4CE0DB
:1053D000B8F1000F18D1A94510DDA9EB050000F0C8
:1053E000FF0B2A4631463846FFF787FF2E442F44ED
:1053F0005A4631463846FFF780FF36E022463146AE
:105400003846FFF77AFF30E0601B84B22046E11790
:1054100004EB1161C1F30728E11704EB11610912D4
:10542000A4EB012101F0FF092A4631463846FFF777
:1054300064FF2E442F4409E04FF480723146384611
:10544000FFF75BFF06F5807607F58077B8F100007F
:10545000A8F1010101F0FF08EED1B9F1000F04D06D
:105460004A4631463846FFF748FFBDE8F09F70B521
:1054700005460C46164601211048FBF746FB032063
:10548000FFF764FCC4F30740FFF760FCC4F3072098
:10549000FFF75CFCE0B2FFF759FC04E0FF20FFF7E8
:1054A00055FC28706D1C301EA6F101018EB2F5D19D
:1054B00001210248FBF727FB70BD0000000C0140F2
:1054C00070B504460D460026281F092876D2DFE86D
:1054D00000F0057555755D8CBCE2F2000422CE49E2
:1054E000204603F002FB08B9012646E00422CB491E
:1054F000204603F0FAFA08B902263EE00422C84921
:10550000204603F0F2FA08B9032636E00422C54922
:10551000204603F0EAFA08B904262EE00422C24924
:10552000204603F0E2FA08B9052626E00422BF4926
:10553000204603F0DAFA08B906261EE00422BC4928
:10554000204603F0D2FA08B9072616E00422B9492A
:10555000204603F0CAFA08B908260EE00422B6492C
:10556000204603F0C2FA08B9092606E00422B3492E
:10557000204603F0BAFA00B90A26D6E00622B0495E
:10558000204603F0B2FA00B90B26CEE00822AD495E
:10559000204603F0AAFA08B90C2625E00822AA49F9
:1055A000204603F0A2FA08B90D261DE00822A749FB
:1055B000204603F09AFA10B90E2615E0B4E008224E
:1055C000A349204603F091FA08B90F260CE0072200
:1055D000A049204603F089FA30B9E079302803DB8E
:1055E000E079392800DC10269FE009229A492046FC
:1055F00003F07BFA08B9112626E0092297492046D4
:1056000003F073FA08B912261EE0092294492046D5
:1056100003F06BFA08B9132616E0092291492046D7
:1056200003F063FA08B914260EE009228E492046D9
:1056300003F05BFA08B9152606E009228B492046DB
:1056400003F053FA00B916266FE00A228849204673
:1056500003F04BFA08B917261CE00A2285492046B8
:1056600003F043FA08B9182614E00A2282492046BA
:1056700003F03BFA08B919260CE009227F492046BD
:1056800003F033FA30B9607A302803DB607A3628C9
:1056900000DC1A2649E00B227949204603F025FA5E
:1056A00008B91B262FE00B227649204603F01DFA8D
:1056B00010B91C2627E027E00B227349204603F08F
:1056C00014FA08B91D261EE00B227049204603F08B
:1056D0000CFA08B91E2616E00B226D49204603F08D
:1056E00004FA08B91F260EE00B226A49204603F08F
:1056F000FCF908B9202606E00B226749204603F092
:10570000F4F900B9212610E00C226449204603F088
:10571000ECF908B9222606E00C226149204603F084
:10572000E4F900B9232600E000BF00BF304670BD99
:105730002DE9F04102460D4642F210740026002089
:1057400005211EE092FBF4F7FBB21EB90BB901294B
:1057500000D1012656B103F1300707F0FF080746D4
:1057600000F1010C0CF0FF0005F8078092FBF4F744
:1057700004FB1727BAB20A2794FBF7F7BCB24F1EF7
:1057800079B20029DEDCBDE8F08130B1012808D013
:10579000022809D003280BD109E0FF220A704A70C1
:1057A00007E0FF220A7004E0FF224A7001E000E0F7
:1057B00000BF00BF00224A710871CA800A72704798
:1057C000014609B9002014E00A2901D1052010E0A2
:1057D000092901D104200CE0082901D1062008E0A4
:1057E000032901D1022004E00E2901D1032000E0A9
:1057F0000020704710B50446012300BF002300209D
:1058000028498870284981F882042649FFF7BDFF9E
:1058100000BF00BF184610BD329300083693000841
:105820003A9300083E93000842930008469300080C
:105830004A9300084E9300085293000856930008BC
:1058400080930008129200081A9200082292000821
:105850002A920008329200085A9300086D930008BB
:1058600090930008A4930008B6930008AD93000835
:105870006393000876930008869300089F920008BF
:105880008992000894920008EE9200081193000893
:105890001C9300082793000899930008F9920008C8
:1058A00005930008A4020020780E002010B50446DD
:1058B00007E04FF4FA7001F077FE4FF4FA7001F050
:1058C00073FE201EA4F101018CB2F2D110BD474835
:1058D0004078401C4549487008464078032801D16B
:1058E0000020487070474149887070473F48807871
:1058F00000EB40003E4908443C494978405C3B4944
:105900000870704708B5FFF7E2FFFFF7EFFF374970
:10591000087800F054FD6946052000F0CFFC9DF8A2
:10592000000008BD10B50446204600F03BFD10BD48
:1059300038B500200090FFF71BFA02226946104696
:1059400002F042FD2B48009028480099C0F803104F
:105950000121009801EB1060192190FBF1F301FB8C
:105960001300C2B21046FFF7BEFF00240FE000F0A4
:10597000B5FD38B1FFF7C6FF00F045FD01201E4917
:10598000487338BD0A20FFF791FF601CC4B2032C96
:10599000EDDB0020F5E72DE9FF5F80460C4615465C
:1059A0001E46DDE90FABDDF83890002700F033FD2F
:1059B00013E002F003FB2B462246002140468DE80F
:1059C000400E00F0DAFD074607B107E0002000F0C6
:1059D0006BF800B102E0FFF795FFEAE700BF00F0C7
:1059E00012FD384604B0BDE8F09F0000B702002069
:1059F000E093000887396DAC780E0020FE487047B0
:105A000010B5FE480078401CFC490870FC4840680E
:105A1000401CFB49486008460088401C0880084636
:105A2000007B401C08730846B0F87E04401CA1F8B7
:105A30007E040846B0F87E0441F66411884203DD16
:105A40000846EF49A1F87E04EE48007858B3ED48C7
:105A5000807840B3EB488078401EEA498870084659
:105A6000807800BB08460078012818D1E648FFF787
:105A700089FBE5498988091AE2484089801C8142EE
:105A80000CDB0222DF490A31DF48FFF733FBDD4838
:105A9000428900F24E41DC48FFF72CFB00E000BFDA
:105AA0000020D849087010BD0146002021B101290D
:105AB0000FD002291AD117E0D14A1288B2F57A7FA5
:105AC00001D9012004E0CE4A92F8822402B10120DB
:105AD0000DE0CB4A5268CA4B9B689A4203D9042214
